:020000040800F2
:1000000000280020E10F0008F90E0008FF0E00088C
:10001000050F00080B0F0008110F0008000000007A
:10002000000000000000000000000000170F0008A2
:10003000230F0008000000002F0F00083B0F0008EE
:1000400029100008291000082910000829100008AC
:10005000291000082910000829100008291000089C
:10006000291000082910000829100008291000088C
:10007000291000082910000829100008291000087C
:10008000291000082910000829100008291000086C
:10009000291000082910000829100008291000085C
:1000A000291000082910000829100008291000084C
:1000B000490F00082910000800000000291000085E
:1000C00029100008000000000000000029100008AE
:1000D000000000002910000829100008000000009E
:1000E000291000082910000829100008000000004D
:1000F0000000000000000000000000000000000000
:0C01000000000000000000005FF808F1A3
:10010C0010B5054C237833B9044B13B10448AFF345
:10011C0000800123237010BD10000020000000009F
:10012C007026000808B5034B1BB103490348AFF315
:10013C00008008BD0000000014000020702600089C
:10014C0080B483B000AF0023FB711FE0FB79144A2D
:10015C00012102F82310FB79114A9B001344012260
:10016C005A70FB790E4A9B00134401229A70FB795A
:10017C000B4A9B0013440122DA70FB79094A4FF4B5
:10018C00967142F82310FB790133FB71FB79022B3A
:10019C00DCD900BF00BF0C37BD4680BC704700BF28
:1001AC008C0000209800002080B483B000AF034680
:1001BC00FB71FB790D4A9B0013445B78002B0FD12C
:1001CC00FB790A4A9B0013449B78002B08D1FB79DE
:1001DC00064A9B001344DB78002B01D1002300E07E
:1001EC00012318460C37BD4680BC70478C0000209C
:1001FC0080B483B000AF0346FB71FB79074AD35C34
:10020C00012B05D1FB79054A0021D154012300E0D3
:10021C00002318460C37BD4680BC70472C000020CC
:10022C0080B483B000AF0346FB71FB79074AD35C03
:10023C00012B05D1FB79054A0021D154012300E0A3
:10024C00002318460C37BD4680BC70473000002098
:10025C0090B583B000AF0346FB71FB79FA79364950
:10026C009B000B449878344993000B4402465A7017
:10027C00FB79FA7930499B000B44D8782E499300CE
:10028C000B4402469A70FB794FF4805202FA03F346
:10029C009BB2FC791946294801F0ACF90346194682
:1002AC00254AA30013440A46DA70FB791846FFF777
:1002BC007BFF0346002B2FD1FB791F4A12F823300A
:1002CC00012B0FD1FB791E4A0121D154FB791A4A1B
:1002DC00002102F82310FB791A4A4FF4967142F868
:1002EC00231024E0FB79174A52F82330002B0AD153
:1002FC00FB79154A0121D154FB79124A4FF49671BE
:10030C0042F8231013E0FB790E4A52F82320013AED
:10031C000C4941F823200AE0FB79074A012102F835
:10032C002310FB79074A4FF4967142F8231000BF53
:10033C000C37BD4690BD00BF8C000020000C014066
:10034C002C000020980000203000002080B582B0E6
:10035C0000AF0346FB71FB79092B00F2938001A2DD
:10036C0052F823F099030008B3030008CD030008EA
:10037C00E7030008010400081B040008350400080A
:10038C004F040008690400087704000800224FF4A9
:10039C00FC51424801F045F901224FF400513F480D
:1003AC0001F03FF975E000224FF440713B4801F039
:1003BC0038F901224FF47251384801F032F968E0F3
:1003CC0000224FF43651354801F02BF901224FF43D
:1003DC009051324801F025F95BE000224FF41E5198
:1003EC002E4801F01EF901224FF4C0512B4801F0A8
:1003FC0018F94EE000224FF44C51284801F011F945
:10040C0001224FF44861254801F00BF941E000222C
:10041C004FF45A51214801F004F901224FF41061B4
:10042C001E4801F0FEF834E000224FF47A511B48CC
:10043C0001F0F7F801224FF48071184801F0F1F83F
:10044C0027E000224FF46071144801F0EAF8012211
:10045C004FF47051114801F0E4F81AE000224FF407
:10046C007E510E4801F0DDF813E000224FF45E518E
:10047C000A4801F0D6F801224FF40061074801F058
:10048C00D0F806E001224FF47E51044801F0C9F87F
:10049C0000BF00BF0837BD4680BD00BF000801404B
:1004AC0080B483B000AF0346FB71FB79632B15D886
:1004BC00FA790D4BA3FB0213D9080B469B000B4496
:1004CC005B00D31ADAB2094BDA70FB79064AA2FB4D
:1004DC000323DB08DAB2054B9A7000E000BF0C373F
:1004EC00BD4680BC704700BFCDCCCCCC34000020C6
:1004FC0080B483B000AF0346FB71FB79632B15D836
:10050C00FA790D4BA3FB0213D9080B469B000B4445
:10051C005B00D31ADAB2094B5A70FB79064AA2FB7C
:10052C000323DB08DAB2054B1A7000E000BF0C376E
:10053C00BD4680BC704700BFCDCCCCCC3400002075
:10054C0080B500AF022000F02BFC0346002B31D00D
:10055C001921022000F05CFC01220F21164801F049
:10056C0060F8164B1B781A46012393409BB200226D
:10057C001946114801F055F8104B1B785B08DBB29B
:10058C001A460E4B1B7803F001030D4952000A4426
:10059C0013441B781846FFF7D9FE084B1B78013320
:1005AC00DAB2064B1A70054B1B78032B02D9034B9E
:1005BC0000221A7000BF80BD000C014038000020E2
:1005CC003400002080B582B000AF00F029FD00F0AF
:1005DC00FDF800F083F900F035F9794801F07EFC64
:1005EC000221002000F014FC0221012000F010FC7C
:1005FC000221022000F00CFC01227E21714801F046
:10060C0010F8FFF79DFD00233B7000237B70002347
:10061C00BB700123FB71002000F01CFB00F0E6F91D
:10062C000123BB71BB79184600F014FB01220F218A
:10063C00654800F0F6FF0020FFF7DAFD0346002BBB
:10064C0002D001233B700AE00020FFF7E9FD0346CE
:10065C00002B02D002233B7001E000233B700120F1
:10066C00FFF7C6FD0346002B02D001237B700AE086
:10067C000120FFF7D5FD0346002B02D002237B702F
:10068C0001E000237B700220FFF7B2FD0346002B34
:10069C0002D00123BB700AE00020FFF7C1FD034626
:1006AC00002B02D00223BB7001E00023BB703B780F
:1006BC00022B2FD0022B2FDC002B2FD0012B00D0A4
:1006CC002AE0FB79032B02D90123FB7102E0FB79B1
:1006DC000133FB71FB79013B032B1BD801A252F8B0
:1006EC0023F000BF010700080907000811070008E4
:1006FC0019070008002000F0ADFA0BE0002000F014
:10070C00DBFA07E0002000F009FB03E0002000F01A
:10071C0037FB00BF00BF02E000BF00E000BF7B78EA
:10072C00022B06D0022B06DC002B06D0012B06D0A8
:10073C0001E000BF04E000BF02E000BF00E000BF2A
:10074C00BB78022B06D0022B06DC002B06D0012B2B
:10075C0006D001E000BF04E000BF02E000BF00E0F3
:10076C0000BFFB79013B032B25D801A252F823F0E3
:10077C008D07000893070008A3070008B3070008BB
:10078C0000F034F918E000F075FA0220FFF788FE4B
:10079C0000F0E4FB10E000F09FFA0320FFF780FE6E
:1007AC0000F0F0FB08E000F0C9FA0420FFF778FE37
:1007BC0000F0FCFB00E000BFFFF7C2FE3BE700BF10
:1007CC00A400002000080140000C014080B590B04E
:1007DC0000AF07F1180328220021184601F03AFF58
:1007EC003B1D00221A605A609A60DA601A6102237B
:1007FC00BB610123BB621023FB6200237B6307F107
:10080C001803184600F03EFF0346002B01D000F001
:10081C00E7F80F237B600023BB600023FB60002301
:10082C003B6100237B613B1D0021184601F0AAF9B6
:10083C000346002B01D000F0D3F800BF4037BD4673
:10084C0080BD000080B586B000AF07F10803002220
:10085C001A605A609A60DA603B4600221A605A604D
:10086C001D4B4FF080421A601B4B41F63F725A6091
:10087C00194B00229A60184B0922DA60164B0022A1
:10088C001A61154B00229A61134801F0D7FA0346FE
:10089C00002B01D000F0A4F84FF48053BB6007F19B
:1008AC00080319460C4801F06DFC0346002B01D0DF
:1008BC0000F096F800233B6000237B603B46194612
:1008CC00054801F039FE0346002B01D000F088F8F2
:1008DC0000BF1837BD4680BDA400002080B586B08F
:1008EC0000AF07F1080300221A605A609A60DA60C0
:1008FC00284B9B69274A43F004039361254B9B6962
:10090C0003F004037B607B68224B9B69214A43F014
:10091C00080393611F4B9B6903F008033B603B6822
:10092C00002243F6FE711C4800F07BFE00220F21D2
:10093C001A4800F076FE43F6FE73BB600123FB60A1
:10094C0000233B6102237B6107F10803194612481F
:10095C0000F0D6FC0F23BB600123FB6000233B613E
:10096C0002237B6107F1080319460C4800F0C8FC10
:10097C004FF4E043BB600023FB6001233B6107F1B4
:10098C0008031946054800F0BBFC00BF1837BD46EC
:10099C0080BD00BF0010024000080140000C014067
:1009AC0080B582B000AF7860002000F009FA012019
:1009BC0000F006FA022000F003FA032000F000FA1F
:1009CC00042000F0FDF90020FFF742FC0120FFF7A6
:1009DC003FFC0220FFF73CFC00BF0837BD4680BD42
:1009EC0080B400AF72B600BFFEE7000080B500AF68
:1009FC00002000F0D5F90346002B00F01281642191
:100A0C00002000F005FA8C4B1B78042B00F20581BA
:100A1C0001A252F823F000BF390A0008650A000849
:100A2C00D70A0008470B0008B70B000801227E21EB
:100A3C00824800F0F6FD824B00221A70814B002296
:100A4C001A700020FFF754FD0020FFF729FD02214A
:100A5C00002000F0DDF9EDE0794B1B78002B03D181
:100A6C00794B1A78764B1A70764B1B78002B03D186
:100A7C00764B1A78734B1A7001227E216F4800F066
:100A8C00D0FD002218216D4800F0CBFD6C4B1B787B
:100A9C00013BDAB26A4B1A706A4B1B78013BDAB233
:100AAC00684B1A70664B1B781846FFF721FD654B97
:100ABC001B781846FFF7F4FC624B1B78002B40F0B8
:100ACC00B2805D4B02221A70ADE05D4B1B78002B9F
:100ADC0003D15D4B1A785A4B1A705A4B1B78002B6A
:100AEC0003D15B4B1A78574B1A7001227E21534865
:100AFC0000F097FD00221421504800F092FD504B5D
:100B0C001B78013BDAB24E4B1A704E4B1B78013BF3
:100B1C00DAB24C4B1A704A4B1B781846FFF7E8FCBC
:100B2C00484B1B781846FFF7BBFC464B1B78002B39
:100B3C007BD1414B03221A7077E0414B1B78002B81
:100B4C0003D1424B1A783E4B1A703E4B1B78002B4C
:100B5C0003D13D4B1A783B4B1A7001227E2137484A
:100B6C0000F05FFD00224221344800F05AFD344B66
:100B7C001B78013BDAB2324B1A70324B1B78013BBB
:100B8C00DAB2304B1A702E4B1B781846FFF7B0FCBC
:100B9C002C4B1B781846FFF783FC294B1B78002B3A
:100BAC0045D1254B04221A7041E0254B1B78002BB4
:100BBC0003D1274B1A78224B1A70224B1B78002B2F
:100BCC0003D1214B1A781F4B1A7001227E211B482E
:100BDC0000F027FD00222221184800F022FD184BBE
:100BEC001B78013BDAB2164B1A70164B1B78013B83
:100BFC00DAB2144B1A70124B1B781846FFF778FCBC
:100C0C00104B1B781846FFF74BFC0D4B1B78002B39
:100C1C000FD1094B01221A700BE0074B00221A70FE
:100C2C0008E000BF06E000BF04E000BF02E000BF28
:100C3C0000E000BF00BF80BDEC00002000080140B8
:100C4C00390000203A0000200000002002000020A3
:100C5C000100002080B483B000AF0346FB71044A4E
:100C6C00FB79137000BF0C37BD4680BC704700BFCA
:100C7C00EC00002080B500AF0D4B1B78022B0FD081
:100C8C00022B0FDC002B02D0012B0DD00AE001222D
:100C9C007E21084800F0C5FC054B01221A7004E0C7
:100CAC0000BF02E000BF00E000BF00BF80BD00BF7E
:100CBC00EC0000200008014080B483B000AF034674
:100CCC00FB71044AFB79137000BF0C37BD4680BC26
:100CDC00704700BFEC00002080B500AF0D4B1B78B7
:100CEC00022B0FD0022B0FDC002B02D0012B0DD0CE
:100CFC000AE001227E21084800F093FC054B0122FA
:100D0C001A7004E000BF02E000BF00E000BF00BFAB
:100D1C0080BD00BFEC0000200008014080B483B00F
:100D2C0000AF0346FB71044AFB79137000BF0C370C
:100D3C00BD4680BC704700BFEC00002080B500AF02
:100D4C000D4B1B78022B0FD0022B0FDC002B02D08B
:100D5C00012B0DD00AE001227E21084800F061FC35
:100D6C00054B01221A7004E000BF02E000BF00E056
:100D7C0000BF00BF80BD00BFEC0000200008014098
:100D8C0080B483B000AF0346FB71044AFB79137047
:100D9C0000BF0C37BD4680BC704700BFEC00002084
:100DAC0080B483B000AF7860044A7B6852F823307B
:100DBC0018460C37BD4680BC704700BF3C00002075
:100DCC0080B483B000AF78600F4A7B6852F8233050
:100DDC00002B13DD0C4A7B6852F823305A1E0A494B
:100DEC007B6841F82320084A7B6852F82330002B9B
:100DFC0004D1064A7B68012142F8231000BF0C374E
:100E0C00BD4680BC704700BF640000203C00002041
:100E1C0080B483B000AF78603960074A7B680021EA
:100E2C0042F8231005497B683A6841F8232000BF3B
:100E3C000C37BD4680BC70473C000020640000208D
:100E4C0080B485B000AF154B9B69144A43F0010385
:100E5C009361124B9B6903F00103BB60BB680F4BA2
:100E6C00DB690E4A43F08053D3610C4BDB6903F012
:100E7C0080537B607B680A4B5B68FB60FB6823F0EC
:100E8C00E063FB60FB6843F08063FB60044AFB6833
:100E9C00536000BF1437BD4680BC70470010024041
:100EAC000000014080B584B000AF78607B681B689F
:100EBC00B3F1804F13D10C4BDB690B4A43F00103A8
:100ECC00D361094BDB6903F00103FB60FB68002273
:100EDC0000211C2000F0DDF91C2000F0F6F900BF09
:100EEC001037BD4680BD00BF0010024080B400AF7B
:100EFC00FEE780B400AFFEE780B400AFFEE780B43D
:100F0C0000AFFEE780B400AFFEE780B400AF00BFD7
:100F1C00BD4680BC704780B400AF00BFBD4680BCEE
:100F2C00704780B400AF00BFBD4680BC704780B531
:100F3C0000AF00F0BBF800BF80BD000080B500AF73
:100F4C00024801F017F800BF80BD00BFA4000020CC
:100F5C0080B400AF00BFBD4680BC704780B500AF09
:100F6C000120FFF71DFF0346002B07D0192101209C
:100F7C00FFF74EFF1221024800F06BFB00BF80BD53
:100F8C000008014080B500AF0120FFF709FF0346C0
:100F9C00002B07D019210120FFF73AFF242102482A
:100FAC0000F057FB00BF80BD0008014080B500AFCA
:100FBC000120FFF7F5FE0346002B07D01921012075
:100FCC00FFF726FF4821024800F043FB00BF80BD1D
:100FDC0000080140FFF7BCFF0B480C490C4A0023EA
:100FEC0002E0D458C4500433C4188C42F9D3094AD3
:100FFC00094C002301E013600432A242FBD301F040
:10100C0005FBFFF7DFFA70470000002010000020FE
:10101C00B426000810000020F4000020FEE70000B9
:10102C0080B500AF084B1B68074A43F010031360F0
:10103C00032000F023F90F2000F008F8FFF700FF61
:10104C000023184680BD00BF0020024080B582B04E
:10105C0000AF7860124B1A68124B1B7819464FF48C
:10106C007A73B3FBF1F3B2FBF3F3184600F03BF9E0
:10107C000346002B01D001230EE07B680F2B0AD80E
:10108C00002279684FF0FF3000F003F9064A7B68C4
:10109C001360002300E0012318460837BD4680BDCD
:1010AC00040000200C0000200800002080B400AFD9
:1010BC00054B1B781A46054B1B681344034A1360F7
:1010CC0000BFBD4680BC70470C000020F000002023
:1010DC0080B400AF024B1B681846BD4680BC7047FD
:1010EC00F000002080B485B000AF78607B6803F01E
:1010FC000703FB600C4BDB68BB60BA684FF6FF0361
:10110C001340BB60FB681A02BB68134343F0BF6318
:10111C0043F40033BB60044ABB68D36000BF143790
:10112C00BD4680BC704700BF00ED00E080B400AF4E
:10113C00044BDB681B0A03F007031846BD4680BC52
:10114C00704700BF00ED00E080B483B000AF0346F1
:10115C00FB7197F90730002B0BDBFB7903F01F02B7
:10116C00064997F907305B09012000FA02F241F8B1
:10117C00232000BF0C37BD4680BC704700E100E067
:10118C0080B483B000AF03463960FB7197F9073028
:10119C00002B0ADB3B68DAB20C4997F907301201D5
:1011AC00D2B20B4483F800230AE03B68DAB2084958
:1011BC00FB7903F00F03043B1201D2B20B441A76F5
:1011CC0000BF0C37BD4680BC704700BF00E100E09B
:1011DC0000ED00E080B489B000AFF860B9607A60CF
:1011EC00FB6803F00703FB61FB69C3F10703042BE6
:1011FC0028BF0423BB61FB690433062B02D9FB69AE
:10120C00033B00E000237B614FF0FF32BB6902FA25
:10121C0003F3DA43BB681A407B699A404FF0FF3105
:10122C007B6901FA03F3D9437B680B4013431846DF
:10123C002437BD4680BC704780B582B000AF786063
:10124C007B68013BB3F1807F01D301230FE00A4A95
:10125C007B68013B53600F214FF0FF30FFF790FF8D
:10126C00054B00229A60044B07221A600023184693
:10127C000837BD4680BD00BF10E000E080B582B0ED
:10128C0000AF78607868FFF72DFF00BF0837BD46C8
:10129C0080BD80B586B000AF0346B9607A60FB7341
:1012AC0000237B61FFF742FF78617A68B96878693F
:1012BC00FFF790FF024697F90F3011461846FFF7DB
:1012CC005FFF00BF1837BD4680BD80B582B000AF50
:1012DC000346FB7197F907301846FFF735FF00BF3F
:1012EC000837BD4680BD80B582B000AF78607868A5
:1012FC00FFF7A2FF034618460837BD4680BD000025
:10130C0080B48BB000AF7860396000237B6200231F
:10131C003B6248E101227B6A02FA03F3FB613B6802
:10132C001B68FA691340BB61BA69FB699A4240F0C9
:10133C0037813B685B68A34A93425ED0A14A9342D3
:10134C0075D8A14A934258D09F4A93426FD89F4A6E
:10135C00934252D09D4A934269D89D4A93424CD0B5
:10136C009B4A934263D89B4A934246D0994A9342F4
:10137C005DD8122B2AD8122B59D801A252F823F07F
:10138C0007140008E1130008F313000835140008D3
:10139C003B1400083B1400083B1400083B140008E5
:1013AC003B1400083B1400083B1400083B140008D5
:1013BC003B1400083B1400083B1400083B140008C5
:1013CC003B140008E9130008FD130008824A9342FD
:1013DC0013D02CE03B68DB683B6229E03B68DB68A0
:1013EC0004333B6224E03B68DB6808333B621FE05C
:1013FC003B68DB680C333B621AE03B689B68002B54
:10140C0002D104233B6213E03B689B68012B05D19E
:10141C0008233B627B68FA691A6109E008233B6286
:10142C007B68FA695A6103E000233B6200E000BF6D
:10143C00BB69FF2B01D87B6801E07B6804337B61BF
:10144C00BB69FF2B02D87B6A9B0002E07B6A083BDE
:10145C009B003B617B691A680F213B6901FA03F31E
:10146C00DB431A40396A3B6901FA03F31A437B697F
:10147C001A603B685B6803F08053002B00F090808F
:10148C00564B9B69554A43F001039361534B9B693F
:10149C0003F00103BB60BB68514A7B6A9B080233B3
:1014AC0052F82330FB607B6A03F003039B000F228E
:1014BC0002FA03F3DB43FA681340FB607B68494A8A
:1014CC0093420DD07B68484A934207D07B68474AC9
:1014DC00934201D1022304E0032302E0012300E044
:1014EC0000237A6A02F0030292009340FA681343D5
:1014FC00FB603B497B6A9B080233FA6841F8232066
:10150C003B685B6803F48013002B06D0384B9A6859
:10151C003749BB6913438B6006E0354B9A68BB694E
:10152C00DB43334913408B603B685B6803F4001367
:10153C00002B06D02E4BDA682D49BB691343CB60C8
:10154C0006E02B4BDA68BB69DB4329491340CB60BF
:10155C003B685B6803F40033002B06D0244B5A68BD
:10156C002349BB6913434B6006E0214B5A68BB69A6
:10157C00DB431F4913404B603B685B6803F48033CB
:10158C00002B06D01A4B1A681949BB6913430B6020
:10159C0006E0174B1A68BB69DB43154913400B6017
:1015AC007B6A01337B623B681A687B6A22FA03F31D
:1015BC00002B7FF4AFAE00BF00BF2C37BD4680BC04
:1015CC00704700BF000032100000311000002210E4
:1015DC000000211000001210000011100010024039
:1015EC000000014000080140000C014000100140C7
:1015FC000004014080B485B000AF78600B467B805E
:10160C007B689A687B881340002B02D00123FB7304
:10161C0001E00023FB73FB7B18461437BD4680BCEE
:10162C00704780B483B000AF78600B467B80134664
:10163C007B707B78002B03D07A887B681A6103E07F
:10164C007B881A047B681A6100BF0C37BD4680BCCE
:10165C00704780B485B000AF78600B467B807B68A8
:10166C00DB68FB607A88FB6813401A04FB68D9437B
:10167C007B880B401A437B681A6100BF1437BD4648
:10168C0080BC704780B586B000AF78607B68002B5B
:10169C0001D101236CE27B681B6803F00103002B72
:1016AC0000F08780924B5B6803F00C03042B0CD08A
:1016BC008F4B5B6803F00C03082B12D18C4B5B68CF
:1016CC0003F48033B3F5803F0BD1894B1B6803F4D3
:1016DC000033002B6CD07B685B68002B68D1012336
:1016EC0046E27B685B68B3F5803F06D1804B1B6894
:1016FC007F4A43F4803313602EE07B685B68002BD9
:10170C000CD17B4B1B687A4A23F480331360784BE3
:10171C001B68774A23F4802313601DE07B685B68A9
:10172C00B3F5A02F0CD1724B1B68714A43F4802384
:10173C0013606F4B1B686E4A43F4803313600BE0ED
:10174C006B4B1B686A4A23F480331360684B1B682D
:10175C00674A23F4802313607B685B68002B13D0EB
:10176C00FFF7B6FC386108E0FFF7B2FC02463B69B4
:10177C00D31A642B01D90323FAE15D4B1B6803F4E4
:10178C000033002BF0D014E0FFF7A2FC386108E026
:10179C00FFF79EFC02463B69D31A642B01D9032345
:1017AC00E6E1534B1B6803F40033002BF0D100E04F
:1017BC0000BF7B681B6803F00203002B63D04C4B0B
:1017CC005B6803F00C03002B0BD0494B5B6803F0F8
:1017DC000C03082B1CD1464B5B6803F48033002BA5
:1017EC0016D1434B1B6803F00203002B05D07B681A
:1017FC001B69012B01D00123BAE13D4B1B6823F07F
:10180C00F8027B685B69DB00394913430B603AE0F3
:10181C007B681B69002B20D0364B01221A60FFF726
:10182C0057FC386108E0FFF753FC02463B69D31ABA
:10183C00022B01D903239BE12D4B1B6803F0020300
:10184C00002BF0D02A4B1B6823F0F8027B685B69F5
:10185C00DB00274913430B6015E0264B00221A606E
:10186C00FFF736FC386108E0FFF732FC02463B69B3
:10187C00D31A022B01D903237AE11D4B1B6803F009
:10188C000203002BF0D17B681B6803F00803002BCC
:10189C003AD07B689B69002B19D0174B01221A6038
:1018AC00FFF716FC386108E0FFF712FC02463B69B3
:1018BC00D31A022B01D903235AE10D4B5B6A03F0B7
:1018CC000203002BF0D0012000F09AFA1CE00A4B26
:1018DC0000221A60FFF7FCFB38610FE0FFF7F8FB02
:1018EC0002463B69D31A022B08D9032340E100BFFF
:1018FC000010024000004242800442429E4B5B6A50
:10190C0003F00203002BE9D17B681B6803F004038E
:10191C00002B00F0A6800023FB75974BDB6903F0CE
:10192C008053002B0DD1944BDB69934A43F08053C9
:10193C00D361914BDB6903F08053BB60BB6801231F
:10194C00FB758E4B1B6803F48073002B18D18B4BEB
:10195C001B688A4A43F480731360FFF7B9FB386144
:10196C0008E0FFF7B5FB02463B69D31A642B01D99B
:10197C000323FDE0814B1B6803F48073002BF0D034
:10198C007B68DB68012B06D17B4B1B6A7A4A43F0E0
:10199C00010313622DE07B68DB68002B0CD1764BC6
:1019AC001B6A754A23F001031362734B1B6A724A5C
:1019BC0023F0040313621CE07B68DB68052B0CD15D
:1019CC006D4B1B6A6C4A43F0040313626A4B1B6A2F
:1019DC00694A43F0010313620BE0674B1B6A664ACA
:1019EC0023F001031362644B1B6A634A23F0040364
:1019FC0013627B68DB68002B15D0FFF769FB38613D
:101A0C000AE0FFF765FB02463B69D31A41F28832C4
:101A1C00934201D90323ABE0574B1B6A03F002033B
:101A2C00002BEED014E0FFF753FB38610AE0FFF710
:101A3C004FFB02463B69D31A41F28832934201D9DB
:101A4C00032395E04C4B1B6A03F00203002BEED1F1
:101A5C00FB7D012B05D1484BDB69474A23F08053B2
:101A6C00D3617B68DB69002B00F08180424B5B68A3
:101A7C0003F00C03082B61D07B68DB69022B46D189
:101A8C003F4B00221A60FFF723FB386108E0FFF799
:101A9C001FFB02463B69D31A022B01D9032367E0D3
:101AAC00354B1B6803F00073002BF0D17B681B6A6D
:101ABC00B3F5803F08D1304B5B6823F400327B6870
:101ACC009B682D4913434B602B4B5B6823F47412BA
:101ADC007B68196A7B685B6A0B43274913434B602D
:101AEC00274B01221A60FFF7F3FA386108E0FFF781
:101AFC00EFFA02463B69D31A022B01D9032337E0D4
:101B0C001D4B1B6803F00073002BF0D02FE01C4B17
:101B1C0000221A60FFF7DCFA386108E0FFF7D8FA08
:101B2C0002463B69D31A022B01D9032320E0124B46
:101B3C001B6803F00073002BF0D118E07B68DB69A5
:101B4C00012B01D1012313E00B4B5B68FB60FB689D
:101B5C0003F480327B681B6A9A4206D1FB6803F45B
:101B6C0070127B685B6A9A4201D0012300E000236B
:101B7C0018461837BD4680BD00100240007000406A
:101B8C006000424280B584B000AF786039607B68F9
:101B9C00002B01D10123D0E06A4B1B6803F0070333
:101BAC003A689A4210D9674B1B6823F007026549C3
:101BBC003B6813430B60634B1B6803F007033A68E5
:101BCC009A4201D00123B8E07B681B6803F0020342
:101BDC00002B20D07B681B6803F00403002B05D07E
:101BEC00594B5B68584A43F4E06353607B681B684D
:101BFC0003F00803002B05D0534B5B68524A43F4A7
:101C0C0060535360504B5B6823F0F0027B689B6819
:101C1C004D4913434B607B681B6803F00103002B99
:101C2C0040D07B685B68012B07D1474B1B6803F4E2
:101C3C000033002B15D101237FE07B685B68022BFE
:101C4C0007D1414B1B6803F00073002B09D1012312
:101C5C0073E03D4B1B6803F00203002B01D1012301
:101C6C006BE0394B5B6823F003027B685B68364999
:101C7C0013434B60FFF72CFAF8600AE0FFF728FAE1
:101C8C000246FB68D31A41F28832934201D90323EE
:101C9C0053E02D4B5B6803F00C027B685B689B0088
:101CAC009A42EBD1274B1B6803F007033A689A4220
:101CBC0010D2244B1B6823F0070222493B681343C4
:101CCC000B60204B1B6803F007033A689A4201D063
:101CDC00012332E07B681B6803F00403002B08D05F
:101CEC00194B5B6823F4E0627B68DB68164913438D
:101CFC004B607B681B6803F00803002B09D0124B68
:101D0C005B6823F460527B681B69DB000E4913434C
:101D1C004B6000F021F802460B4B5B681B0903F08B
:101D2C000F030A49CB5C22FA03F3094A1360094BEF
:101D3C001B681846FFF78AF9002318461037BD4672
:101D4C0080BD00BF00200240001002408826000821
:101D5C00040000200800002080B487B000AF0023EE
:101D6C00FB600023BB6000237B6100237B600023AE
:101D7C003B611E4B5B68FB60FB6803F00C03042BA0
:101D8C0002D0082B03D027E0194B3B6127E0FB68FE
:101D9C009B0C03F00F03174AD35C7B60FB6803F4C6
:101DAC008033002B10D0114B5B685B0C03F00103EC
:101DBC00114AD35CBB607B680D4A02FB03F2BB6823
:101DCC00B2FBF3F37B6104E07B680C4A02FB03F388
:101DDC007B617B693B6102E0054B3B6100BF3B696A
:101DEC0018461C37BD4680BC704700BF001002402F
:101DFC0000127A0098260008A826000800093D0069
:101E0C0080B485B000AF78600A4B1B680A4AA2FB0D
:101E1C0003235B0A7A6802FB03F3FB6000BFFB68D9
:101E2C005A1EFA60002BF9D100BF00BF1437BD4613
:101E3C0080BC704704000020D34D621080B582B086
:101E4C0000AF78607B68002B01D1012341E07B68F7
:101E5C0093F83D30DBB2002B06D17B68002283F86F
:101E6C003C207868FFF71EF87B68022283F83D203F
:101E7C007B681A687B6804331946104600F06EFACA
:101E8C007B68012283F846207B68012283F83E2080
:101E9C007B68012283F83F207B68012283F8402075
:101EAC007B68012283F841207B68012283F8422061
:101EBC007B68012283F843207B68012283F844204D
:101ECC007B68012283F845207B68012283F83D2042
:101EDC00002318460837BD4680BD000080B485B08D
:101EEC0000AF78607B6893F83D30DBB2012B01D0FA
:101EFC00012335E07B68022283F83D207B681B6858
:101F0C00DA687B681B6842F00102DA607B681B6848
:101F1C00164A934209D07B681B68B3F1804F04D0FA
:101F2C007B681B68124A934211D17B681B689B68C3
:101F3C0003F00703FB60FB68062B10D07B681B6863
:101F4C001A687B681B6842F001021A6007E07B6824
:101F5C001B681A687B681B6842F001021A60002338
:101F6C0018461437BD4680BC704700BF002C01409A
:101F7C000004004080B582B000AF78607B681B68BD
:101F8C001B6903F00203022B22D17B681B68DB6800
:101F9C0003F00203022B1BD17B681B686FF002025B
:101FAC001A617B6801221A777B681B689B6903F0B6
:101FBC000303002B03D0786800F0B4F905E07868CF
:101FCC0000F0A7F9786800F0B6F97B6800221A7760
:101FDC007B681B681B6903F00403042B22D17B680C
:101FEC001B68DB6803F00403042B1BD17B681B68A4
:101FFC006FF004021A617B6802221A777B681B68F7
:10200C009B6903F44073002B03D0786800F08AF9C5
:10201C0005E0786800F07DF9786800F08CF97B6851
:10202C0000221A777B681B681B6903F00803082BD6
:10203C0022D17B681B68DB6803F00803082B1BD1DB
:10204C007B681B686FF008021A617B6804221A77A0
:10205C007B681B68DB6903F00303002B03D07868F3
:10206C0000F060F905E0786800F053F9786800F04A
:10207C0062F97B6800221A777B681B681B6903F086
:10208C001003102B22D17B681B68DB6803F0100354
:10209C00102B1BD17B681B686FF010021A617B68D8
:1020AC0008221A777B681B68DB6903F44073002BEA
:1020BC0003D0786800F036F905E0786800F029F96B
:1020CC00786800F038F97B6800221A777B681B6807
:1020DC001B6903F00103012B0ED17B681B68DB68C5
:1020EC0003F00103012B07D17B681B686FF0010221
:1020FC001A617868FEF754FC7B681B681B6903F057
:10210C008003802B0ED17B681B68DB6803F0800397
:10211C00802B07D17B681B686FF080021A6178688E
:10212C0000F06BFA7B681B681B6903F04003402BC3
:10213C000ED17B681B68DB6803F04003402B07D192
:10214C007B681B686FF040021A61786800F0FCF83D
:10215C007B681B681B6903F02003202B0ED17B6866
:10216C001B68DB6803F02003202B07D17B681B68FE
:10217C006FF020021A61786800F036FA00BF083759
:10218C00BD4680BD80B584B000AF78603960002357
:10219C00FB737B6893F83C30012B01D10223B4E034
:1021AC007B68012283F83C207B68022283F83D2067
:1021BC007B681B689B68BB60BB6823F07703BB60C4
:1021CC00BB6823F47F43BB607B681B68BA689A606A
:1021DC003B681B68B3F5005F3ED0B3F5005F00F2BF
:1021EC008780B3F5805F00F08680B3F5805F7FD881
:1021FC00702B1AD0702B7BD8602B50D0602B77D8DB
:10220C00502B3CD0502B73D8402B58D0402B6FD830
:10221C00302B64D0302B6BD8202B60D0202B67D880
:10222C00002B5CD0102B5AD062E07B6818683B689E
:10223C0099683B685A683B68DB6800F05EF97B681C
:10224C001B689B68BB60BB6843F07703BB607B6813
:10225C001B68BA689A604FE07B6818683B6899689D
:10226C003B685A683B68DB6800F047F97B681B6881
:10227C009A687B681B6842F480429A603CE07B68F9
:10228C0018683B6859683B68DB681A4600F0BEF872
:10229C007B681B685021184600F015F92CE07B6810
:1022AC0018683B6859683B68DB681A4600F0DCF834
:1022BC007B681B686021184600F005F91CE07B6800
:1022CC0018683B6859683B68DB681A4600F09EF852
:1022DC007B681B684021184600F0F5F80CE07B6821
:1022EC001A683B681B681946104600F0ECF803E0CE
:1022FC000123FB7300E000BF7B68012283F83D20C3
:10230C007B68002283F83C20FB7B18461037BD46C7
:10231C0080BD80B483B000AF786000BF0C37BD4681
:10232C0080BC704780B483B000AF786000BF0C37BE
:10233C00BD4680BC704780B483B000AF786000BFEE
:10234C000C37BD4680BC704780B483B000AF78605A
:10235C0000BF0C37BD4680BC7047000080B485B010
:10236C0000AF786039607B681B68FB607B68254A2E
:10237C00934207D07B68B3F1804F03D07B68224A2D
:10238C00934208D1FB6823F07003FB603B685B68E9
:10239C00FA681343FB607B681A4A934207D07B6848
:1023AC00B3F1804F03D07B68174A934208D1FB6886
:1023BC0023F44073FB603B68DB68FA681343FB60F3
:1023CC00FB6823F080023B685B691343FB607B680E
:1023DC00FA681A603B689A687B68DA623B681A682C
:1023EC007B689A627B68074A934203D13B681A69FF
:1023FC007B681A637B6801225A6100BF1437BD46A3
:10240C0080BC7047002C01400004004080B487B0B1
:10241C0000AFF860B9607A60FB681B6A7B61FB688F
:10242C001B6A23F00102FB681A62FB689B693B6123
:10243C003B6923F0F0033B617B681B013A69134352
:10244C003B617B6923F00A037B617A69BB681343A8
:10245C007B61FB683A699A61FB687A691A6200BF12
:10246C001C37BD4680BC704780B487B000AFF860A5
:10247C00B9607A60FB681B6A7B61FB681B6A23F09E
:10248C001002FB681A62FB689B693B613B6923F491
:10249C0070433B617B681B033A6913433B617B6967
:1024AC0023F0A0037B61BB681B017A6913437B613A
:1024BC00FB683A699A61FB687A691A6200BF1C373B
:1024CC00BD4680BC704780B485B000AF7860396081
:1024DC007B689B68FB60FB6823F07003FB603A68C9
:1024EC00FB68134343F00703FB607B68FA689A6050
:1024FC0000BF1437BD4680BC704780B487B000AFB6
:10250C00F860B9607A603B60FB689B687B617B69B3
:10251C0023F47F437B613B681A027B681A43BB68D8
:10252C0013437A6913437B61FB687A699A6000BF35
:10253C001C37BD4680BC704780B485B000AF786056
:10254C0039607B6893F83C30012B01D1022341E0C8
:10255C007B68012283F83C207B68022283F83D20B3
:10256C007B681B685B68FB607B681B689B68BB6057
:10257C00FB6823F07003FB603B681B68FA6813432D
:10258C00FB607B681B68FA685A607B681B68144A9E
:10259C00934209D07B681B68B3F1804F04D07B68F1
:1025AC001B68104A93420CD1BB6823F08003BB60BC
:1025BC003B685B68BA681343BB607B681B68BA688E
:1025CC009A607B68012283F83D207B68002283F8A7
:1025DC003C20002318461437BD4680BC704700BF12
:1025EC00002C01400004004080B483B000AF786040
:1025FC0000BF0C37BD4680BC704780B483B000AFC1
:10260C00786000BF0C37BD4680BC704770B50026A3
:10261C000C4D0D4C641BA410A64209D100F022F8FD
:10262C0000260A4D0A4C641BA410A64205D170BDAD
:10263C0055F8043B98470136EEE755F8043B9847AC
:10264C000136F2E7AC260008AC260008AC260008E0
:10265C00B026000803460244934200D1704703F8A9
:10266C00011BF9E7F8B500BFF8BC08BC9E467047E3
:0C267C00F8B500BFF8BC08BC9E467047D3
:10268800000000000000000001020304060708091A
:1026980002030405060708090A0B0C0D0E0F10109B
:0426A800010200002B
:0426AC0031010008F0
:0426B0000D01000810
:1026B400050203000024F4001000000001000000E3
:0400000508000FE1FF
:00000001FF
